:020000040800F2
:1000000000000220210C0008B10A0008B70A00080D
:10001000BD0A0008C30A0008C90A00080000000061
:10002000000000000000000000000000CF0A0008EF
:10003000DD0A000800000000EB0A0008F90A0008C9
:10004000710C0008710C0008710C0008710C00089C
:10005000710C0008710C0008710C0008710C00088C
:10006000710C0008710C0008710C0008710C00087C
:10007000710C0008710C0008710C0008710C00086C
:10008000710C0008710C0008710C0008710C00085C
:10009000710C0008710C0008710C0008710C00084C
:1000A000710C0008710C0008710C0008710C00083C
:1000B000050B0008710C0008710C0008710C000899
:1000C000710C0008710C0008710C0008710C00081C
:1000D000710C0008710C0008710C0008710C00080C
:1000E000710C0008710C0008710C0008710C0008FC
:1000F000710C0008710C0008710C0008710C0008EC
:10010000710C0008710C0008710C0008710C0008DB
:10011000710C0008710C0008710C0008710C0008CB
:10012000710C0008710C0008710C0008710C0008BB
:10013000710C0008710C0008710C0008710C0008AB
:10014000710C0008710C0008710C0008710C00089B
:10015000710C0008710C0008710C0008710C00088B
:10016000710C0008710C0008710C0008710C00087B
:10017000710C0008710C0008710C000800000000F0
:08018000710C0008710C00086D
:1001880010B5054C237833B9044B13B10448AFF3C9
:1001980000800123237010BD0C0000200000000027
:1001A800D425000808B5034B1BB103490348AFF336
:1001B800008008BD0000000010000020D4250008C1
:1001C80053B94AB9002908BF00281CBF4FF0FF31B6
:1001D8004FF0FF3000F06EB9ADF1080C6DE904CEB8
:1001E80000F006F8DDF804E0DDE9022304B070470A
:1001F8002DE9F047089D04468C46002B40F083808B
:100208008A42174647D9B2FA82F242B1C2F12000B7
:1002180024FA00F09140974040EA010C94404FEADC
:100228001748230CBCFBF8F61FFA87FE08FB16C11B
:1002380043EA014306FB0EF1994209D9FB1806F17E
:10024800FF3080F01981994240F21681023E3B440A
:100258005B1AA4B2B3FBF8F008FB103344EA03447A
:1002680000FB0EFEA64509D93C1900F1FF3380F0CA
:100278000581A64540F2028102383C4440EA064026
:10028800A4EB0E0400261DB1D4400023C5E90043A9
:100298003146BDE8F08702B9FFDEB2FA82F2002AE1
:1002A80050D1CB1B4FEA174E1FFA87F80126B3FB34
:1002B800FEFC210C0EFB1C3341EA034108FB0CF346
:1002C8008B4207D979180CF1FF3002D28B4200F229
:1002D800E9808446C91AA3B2B1FBFEF00EFB1011E7
:1002E80043EA014408FB00F8A04507D93C1900F18E
:1002F800FF3302D2A04500F2D9801846A4EB0804C7
:1003080040EA0C40BFE78B4209D9002D00F0B180CC
:100318000026C5E9000130463146BDE8F087B3FA4A
:1003280083F6002E4AD18B4202D3824200F2B88073
:10033800841A61EB030101208C46002DA8D0C5E981
:10034800004CA5E7C2F1200320FA03F6974001FA12
:1003580002F04FEA174ED9403043030CB1FBFEF6CA
:100368001FFA87F80EFB161143EA014306FB08F152
:10037800994204FA02F409D9FB1806F1FF3C80F00F
:100388008D80994240F28A80023E3B445B1A81B2DA
:10039800B3FBFEF00EFB103341EA034100FB08F308
:1003A8008B4207D9791800F1FF3C73D28B4271D97F
:1003B80002383944CB1A40EA064678E7C6F1200CE1
:1003C80003FA06F422FA0CF31C4320FA0CF701FA9C
:1003D80006F34FEA144E21FA0CF11F433B0CB1FB14
:1003E800FEF91FFA84F80EFB191143EA014109FBD3
:1003F80008FA8A4502FA06F200FA06F308D96118E3
:1004080009F1FF3048D28A4546D9A9F102092144A9
:10041800A1EB0A01BFB2B1FBFEF00EFB101147EAD7
:10042800014700FB08F8B84507D9E71900F1FF3183
:100438002ED2B8452CD90238274440EA0940A7EB08
:100448000807A0FB02894F45C64649461AD317D06C
:100458005DB1B3EB0E0267EB010707FA0CFCF24043
:100468004CEA0202F740C5E9002700263146BDE8FC
:10047800F0872E4628460BE70646E9E61846FDE6CD
:100488004345E5D2B8EB020E69EB04010138DFE71A
:100498000846D2E760468DE78146B9E7664675E7C4
:1004A80030464AE7ACF1020C394413E702383C44C1
:1004B80024E700BF704700BF80B58CB000AF07F1DC
:1004C8001C0300221A605A609A60DA601A610023DD
:1004D800BB615A4B1B6B594A43F010031363574BCC
:1004E8001B6B03F01003BB61BB6900237B61534B9B
:1004F8001B6B524A43F080031363504B1B6B03F092
:1005080080037B617B6900233B614C4B1B6B4B4A2F
:1005180043F001031363494B1B6B03F001033B6179
:100528003B690023FB60454B1B6B444A43F00403C3
:100538001363424B1B6B03F00403FB60FB6800234F
:10054800BB603E4B1B6B3D4A43F0400313633B4B80
:100558001B6B03F04003BB60BB6800237B60374B19
:100568001B6B364A43F008031363344B1B6B03F0D1
:1005780008037B607B6800233B60304B1B6B2F4A72
:1005880043F0020313632D4B1B6B03F002033B6024
:100598003B68002270212A4800F088FE0022402192
:1005A800284800F083FE00220821274800F07EFE3C
:1005B8007023FB6101233B6200237B620023BB6243
:1005C80007F11C0319461E4800F0D4FCC023FB6148
:1005D80000233B6200237B6207F11C0319461B487A
:1005E80000F0C8FC3023FB6100233B6200237B62E0
:1005F80007F11C031946164800F0BCFC4023FB61B8
:1006080001233B6200237B620023BB6207F11C03CA
:1006180019460C4800F0AEFC0823FB6101233B623D
:1006280000237B620023BB6207F11C0319460648BE
:1006380000F0A0FC00BF3037BD4680BD0038024046
:100648000010024000180240000C02400000024066
:100658000008024080B500AF01224021024800F0A6
:1006680025FE00BF80BD00BF0018024080B582B0E3
:1006780000AF0346FB710B46BB7113467B71FB79D8
:100688001A461021094800F011FE7B791A462021EC
:10069800064800F00BFEBB791A464021034800F0DB
:1006A80005FE00BF0837BD4680BD00BF00100240F0
:1006B80080B582B000AF00F0D9FA00F073F8FFF708
:1006C800FBFE00F037FA00F049F900F0D5F80022F7
:1006D8001021324800F0EAFD002220212F4800F0C6
:1006E800E5FD002240212D4800F0E0FD0023FB71CC
:1006F80041F2883000F0ECF8294B1B88012B28D1F7
:10070800274B00221A80FB79022B0DD0022B19DC13
:10071800002B02D0012B0ED014E00223FB7140F60F
:10072800B83000F0D5F815E00123FB714FF47A706A
:1007380000F0CEF80EE00023FB7141F2883000F0A3
:10074800C7F807E00023FB7141F2883000F0C0F8D9
:1007580000E000BFFB79022B0CD0022B16DC002B2B
:1007680002D0012B0CD011E0002200210120FFF75C
:100778007DFF12E0002201210020FFF777FF0CE047
:10078800012200210020FFF771FF06E00023FB7122
:1007980041F2883000F09CF800BFADE7001002403D
:1007A8002800002080B594B000AF07F12003302264
:1007B8000021184601F002FF07F10C0300221A601D
:1007C8005A609A60DA601A610023BB60284B1B6C80
:1007D800274A43F080531364254B1B6C03F0805366
:1007E800BB60BB6800237B60224B1B68214A43F433
:1007F800804313601F4B1B6803F480437B607B6856
:1008080002233B620123FB6210233B630223BB6389
:100818000023FB6308233B64A8237B640223BB6497
:100828000423FB6407F12003184600F059FD034632
:10083800002B01D000F03CF80F23FB6002233B6142
:1008480000237B614FF4A053BB614FF48053FB61DD
:1008580007F10C030521184600F0BAFF0346002BE8
:1008680001D000F025F800BF5037BD4680BD00BF5D
:10087800003802400070004080B500AF00222021FF
:100888000A4800F013FD00224021084800F00EFD40
:1008980000221021054800F009FD00F00FF8FFF7CD
:1008A800D9FE322000F014F800BF80BD00100240CD
:1008B80080B400AF72B600BFFEE7000080B500AF9D
:1008C800024801F025FA00BF80BD00BF8800002063
:1008D80080B483B000AF0346FB80084AFB881380CE
:1008E800064B1A88064B1A80064B00221A8000BF56
:1008F8000C37BD465DF8047B704700BF2C00002014
:100908002A0000202800002080B483B000AF78605F
:100918007B681B68B3F1804F14D10D4B1B88002BEB
:1009280010D00B4B1B88013B9AB2094B1A80084B1D
:100938001B88002B06D1074B01221A80064B1A8808
:10094800034B1A8000BF0C37BD465DF8047B704727
:100958002A000020280000202C00002080B500AFCD
:10096800174B184A1A60164B4FF482725A60144B90
:1009780000229A60124B0022DA60114B00221A61A1
:100988000F4B00225A610E4B4FF400729A610C4BC8
:100998000022DA610A4B00221A62094B00225A62CD
:1009A800074B00229A62064B0A22DA62044801F0D9
:1009B800D7F80346002B01D0FFF77AFF00BF80BDB0
:1009C800300000200030014080B58AB000AF786068
:1009D80007F1140300221A605A609A60DA601A61FB
:1009E8007B681B68194A93422BD100233B61184B43
:1009F8005B6C174A43F480535364154B5B6C03F4E8
:100A080080533B613B690023FB60114B1B6B104A11
:100A180043F0020313630E4B1B6B03F00203FB60EE
:100A2800FB6838237B610223BB610023FB6103233E
:100A38003B6205237B6207F114031946054800F061
:100A480099FA00BF2837BD4680BD00BF003001407D
:100A5800003802400004024080B483B000AF002395
:100A68007B60104B5B6C0F4A43F4804353640D4B1F
:100A78005B6C03F480437B607B6800233B60094B1D
:100A88001B6C084A43F080531364064B1B6C03F03D
:100A980080533B603B6800BF0C37BD465DF8047B64
:100AA800704700BF0038024080B400AFFEE780B452
:100AB80000AFFEE780B400AFFEE780B400AFFEE70A
:100AC80080B400AFFEE780B400AF00BFBD465DF85C
:100AD800047B704780B400AF00BFBD465DF8047B5F
:100AE800704780B400AF00BFBD465DF8047B704717
:100AF80080B500AF00F00CF900BF80BD80B500AF35
:100B0800024801F075F900BF80BD00BF88000020D1
:100B180080B400AF064BD3F88830054A43F470031D
:100B2800C2F8883000BFBD465DF8047B704700BF3F
:100B380000ED00E080B586B000AF07F108030022A1
:100B48001A605A609A60DA603B4600221A605A605E
:100B58001D4B4FF080421A601B4B40F247325A60DF
:100B6800194B00229A60184B6322DA60164B002258
:100B78001A61154B00229A61134801F07AF803466E
:100B8800002B01D0FFF794FE4FF48053BB6007F1B0
:100B9800080319460C4801F033FA0346002B01D02C
:100BA800FFF786FE00233B6000237B603B46194627
:100BB800054801F04FFC0346002B01D0FFF778FEF3
:100BC80000BF1837BD4680BD8800002080B584B0BE
:100BD80000AF78607B681B68B3F1804F15D10023A4
:100BE800FB600C4B1B6C0B4A43F001031364094B6D
:100BF8001B6C03F00103FB60FB68002200211C2032
:100C080000F081F91C2000F09AF900BF1037BD46AA
:100C180080BD00BF00380240DFF834D00D480E49CF
:100C28000E4A002302E0D458C4500433C4188C423E
:100C3800F9D30B4A0B4C002301E013600432A242A3
:100C4800FBD3FFF765FF01F095FCFFF731FD704717
:100C580000000220000000200C0000200C260008E4
:100C68000C000020D4000020FEE7000080B500AF93
:100C78000E4B1B680D4A43F4007313600B4B1B6843
:100C88000A4A43F480631360084B1B68074A43F41D
:100C980080731360032000F02BF90F2000F008F890
:100CA800FFF7DAFE0023184680BD00BF003C024073
:100CB80080B582B000AF7860124B1A68124B1B786F
:100CC80019464FF47A73B3FBF1F3B2FBF3F318460A
:100CD80000F043F90346002B01D001230EE07B68A6
:100CE8000F2B0AD8002279684FF0FF3000F00BF97B
:100CF800064A7B681360002300E001231846083782
:100D0800BD4680BD0000002008000020040000202F
:100D180080B400AF064B1B781A46064B1B68134479
:100D2800044A136000BFBD465DF8047B704700BFEE
:100D380008000020D000002080B400AF034B1B68DF
:100D48001846BD465DF8047B704700BFD000002000
:100D580080B485B000AF78607B6803F00703FB6060
:100D68000C4BDB68BB60BA684FF6FF031340BB60EF
:100D7800FB681A02BB68134343F0BF6343F40033B4
:100D8800BB60044ABB68D36000BF1437BD465DF83A
:100D9800047B704700ED00E080B400AF044BDB68D3
:100DA8001B0A03F007031846BD465DF8047B70472D
:100DB80000ED00E080B483B000AF0346FB7197F903
:100DC8000730002B0BDBFB7903F01F02074997F96B
:100DD80007305B09012000FA02F241F8232000BF26
:100DE8000C37BD465DF8047B704700BF00E100E0AA
:100DF80080B483B000AF03463960FB7197F90730C0
:100E0800002B0ADB3B68DAB20C4997F9073012016C
:100E1800D2B20B4483F800230AE03B68DAB20849EF
:100E2800FB7903F00F03043B1201D2B20B441A768C
:100E380000BF0C37BD465DF8047B704700E100E059
:100E480000ED00E080B489B000AFF860B9607A6066
:100E5800FB6803F00703FB61FB69C3F10703042B7D
:100E680028BF0423BB61FB690433062B02D9FB6945
:100E7800033B00E000237B614FF0FF32BB6902FABD
:100E880003F3DA43BB681A407B699A404FF0FF319D
:100E98007B6901FA03F3D9437B680B401343184677
:100EA8002437BD465DF8047B7047000080B582B0EA
:100EB80000AF78607B68013BB3F1807F01D30123E9
:100EC8000FE00A4A7B68013B53600F214FF0FF3067
:100ED800FFF78EFF054B00229A60044B07221A6029
:100EE800002318460837BD4680BD00BF10E000E06B
:100EF80080B582B000AF78607868FFF729FF00BF3F
:100F08000837BD4680BD80B586B000AF0346B960DE
:100F18007A60FB7300237B61FFF73EFF78617A6894
:100F2800B9687869FFF78EFF024697F90F301146C6
:100F38001846FFF75DFF00BF1837BD4680BD80B576
:100F480082B000AF0346FB7197F907301846FFF7E8
:100F580031FF00BF0837BD4680BD80B582B000AF05
:100F680078607868FFF7A2FF034618460837BD4641
:100F780080BD000080B489B000AF7860396000237C
:100F88007B6100233B610023BB610023FB616BE1B4
:100F98000122FB6902FA03F37B613B681B687A69EB
:100FA80013403B613A697B699A4240F05A813B6839
:100FB8005B6803F00303012B05D03B685B6803F013
:100FC8000303022B30D17B689B68BB61FB695B0024
:100FD800032202FA03F3DB43BA691340BB613B689F
:100FE800DA68FB695B0002FA03F3BA691343BB6171
:100FF8007B68BA699A607B685B68BB610122FB69A0
:1010080002FA03F3DB43BA691340BB613B685B68D0
:101018001B0903F00102FB6902FA03F3BA691343DF
:10102800BB617B68BA695A603B685B6803F003037D
:10103800032B17D07B68DB68BB61FB695B0003226D
:1010480002FA03F3DB43BA691340BB613B689A6851
:10105800FB695B0002FA03F3BA691343BB617B685F
:10106800BA69DA603B685B6803F00303022B23D19B
:10107800FB69DA087B68083253F82230BB61FB69E8
:1010880003F007039B000F2202FA03F3DB43BA695C
:101098001340BB613B681A69FB6903F007039B00B7
:1010A80002FA03F3BA691343BB61FB69DA087B6888
:1010B8000832B96943F822107B681B68BB61FB6979
:1010C8005B00032202FA03F3DB43BA691340BB61F6
:1010D8003B685B6803F00302FB695B0002FA03F3F9
:1010E800BA691343BB617B68BA691A603B685B687D
:1010F80003F44033002B00F0B4800023FB60604B06
:101108005B6C5F4A43F4804353645D4B5B6C03F450
:101118008043FB60FB685B4AFB699B08023352F81B
:101128002330BB61FB6903F003039B000F2202FA23
:1011380003F3DB43BA691340BB617B68524A9342AD
:101148002BD07B68514A934225D07B68504A934202
:101158001FD07B684F4A934219D07B684E4A93420E
:1011680013D07B684D4A93420DD07B684C4A93421A
:1011780007D07B684B4A934201D107230EE008232E
:101188000CE006230AE0052308E0042306E0032315
:1011980004E0022302E0012300E00023FA6902F0E0
:1011A800030292009340BA691343BB613549FB6956
:1011B8009B080233BA6941F823203B4B1B68BB618B
:1011C8003B69DB43BA691340BB613B685B6803F466
:1011D8008033002B03D0BA693B691343BB61324AA1
:1011E800BB691360304B5B68BB613B69DB43BA6921
:1011F8001340BB613B685B6803F40033002B03D0EA
:10120800BA693B691343BB61274ABB695360264BE4
:101218009B68BB613B69DB43BA691340BB613B68B0
:101228005B6803F48013002B03D0BA693B6913434E
:10123800BB611D4ABB6993601B4BDB68BB613B69A3
:10124800DB43BA691340BB613B685B6803F4001376
:10125800002B03D0BA693B691343BB61124ABB69CF
:10126800D360FB690133FB61FB690F2B7FF690AEFE
:1012780000BF00BF2437BD465DF8047B704700BF40
:1012880000380240003801400000024000040240DB
:1012980000080240000C0240001002400014024006
:1012A80000180240001C0240003C014080B483B09A
:1012B80000AF78600B467B8013467B707B78002BF1
:1012C80003D07A887B689A6103E07B881A047B687C
:1012D8009A6100BF0C37BD465DF8047B704700007B
:1012E80080B586B000AF78607B68002B01D1012300
:1012F80064E27B681B6803F00103002B75D0A34BE5
:101308009B6803F00C03042B0CD0A04B9B6803F0E4
:101318000C03082B12D19D4B5B6803F48003B3F5D3
:10132800800F0BD1994B1B6803F40033002B5BD063
:101338007B685B68002B57D101233FE27B685B68C1
:10134800B3F5803F06D1914B1B68904A43F4803334
:1013580013601DE07B685B68B3F5A02F0CD18B4B45
:101368001B688A4A43F480231360884B1B68874AAA
:1013780043F4803313600BE0844B1B68834A23F4E7
:1013880080331360814B1B68804A23F480231360E9
:101398007B685B68002B13D0FFF7CEFC386108E050
:1013A800FFF7CAFC02463B69D31A642B01D9032311
:1013B80004E2764B1B6803F40033002BF0D014E0F2
:1013C800FFF7BAFC386108E0FFF7B6FC02463B6954
:1013D800D31A642B01D90323F0E16C4B1B6803F487
:1013E8000033002BF0D100E000BF7B681B6803F0DE
:1013F8000203002B63D0654B9B6803F00C03002BA2
:101408000BD0624B9B6803F00C03082B1CD15F4B7D
:101418005B6803F48003002B16D15C4B1B6803F058
:101428000203002B05D07B68DB68012B01D0012368
:10143800C4E1564B1B6823F0F8027B681B69DB008C
:10144800524913430B603AE07B68DB68002B20D0DD
:101458004F4B01221A60FFF76FFC386108E0FFF775
:101468006BFC02463B69D31A022B01D90323A5E181
:10147800464B1B6803F00203002BF0D0434B1B685C
:1014880023F0F8027B681B69DB00404913430B60BB
:1014980015E03F4B00221A60FFF74EFC386108E068
:1014A800FFF74AFC02463B69D31A022B01D90323F2
:1014B80084E1364B1B6803F00203002BF0D17B68F4
:1014C8001B6803F00803002B30D07B685B69002B96
:1014D80016D0304B01221A60FFF72EFC386108E065
:1014E800FFF72AFC02463B69D31A022B01D90323D2
:1014F80064E1264B5B6F03F00203002BF0D015E08C
:10150800244B00221A60FFF717FC386108E0FFF748
:1015180013FC02463B69D31A022B01D903234DE180
:101528001A4B5B6F03F00203002BF0D17B681B683A
:1015380003F00403002B00F0A0800023FB75134B7D
:101548001B6C03F08053002B0FD10023BB600F4BA3
:101558001B6C0E4A43F0805313640C4B1B6C03F056
:101568008053BB60BB680123FB750B4B1B6803F4FE
:101578008073002B21D1084B1B68074A43F4807302
:101588001360FFF7D9FB386111E000BF0038024053
:1015980000004742800E474200700040FFF7CCFB36
:1015A80002463B69D31A022B01D9032306E1854B76
:1015B8001B6803F48073002BF0D07B689B68012BB9
:1015C80006D1814B1B6F804A43F0010313671CE06F
:1015D8007B689B68052B0CD17B4B1B6F7A4A43F0C9
:1015E80004031367784B1B6F774A43F001031367B3
:1015F8000BE0754B1B6F744A23F001031367724BA2
:101608001B6F714A23F0040313677B689B68002BE8
:1016180015D0FFF791FB38610AE0FFF78DFB024612
:101628003B69D31A41F28832934201D90323C5E0BA
:10163800654B1B6F03F00203002BEED014E0FFF79D
:101648007BFB38610AE0FFF777FB02463B69D31A58
:1016580041F28832934201D90323AFE05A4B1B6F02
:1016680003F00203002BEED1FB7D012B05D1564B75
:101678001B6C554A23F0805313647B689B69002BCD
:1016880000F09B80504B9B6803F00C03082B5CD048
:101698007B689B69022B41D14C4B00221A60FFF7F3
:1016A8004BFB386108E0FFF747FB02463B69D31A5A
:1016B800022B01D9032381E0434B1B6803F000731D
:1016C800002BF0D17B68DA697B681B6A1A437B6858
:1016D8005B6A9B011A437B689B6A5B08013B1B049E
:1016E8001A437B68DB6A1B06374913434B60374B49
:1016F80001221A60FFF720FB386108E0FFF71CFBA6
:1017080002463B69D31A022B01D9032356E02E4B1C
:101718001B6803F00073002BF0D04EE02B4B002227
:101728001A60FFF709FB386108E0FFF705FB02467E
:101738003B69D31A022B01D903233FE0224B1B68D4
:1017480003F00073002BF0D137E07B689B69012B15
:1017580001D1012332E01C4B5B68FB607B689B690D
:10176800012B28D0FB6803F480027B68DB699A426E
:1017780021D1FB6803F03F027B681B6A9A421AD1A9
:10178800FA6847F6C07313407A68526A9201934226
:1017980011D1FB6803F440327B689B6A5B08013B0C
:1017A8001B049A4207D1FB6803F070627B68DB6A0E
:1017B8001B069A4201D0012300E00023184618377F
:1017C800BD4680BD007000400038024060004742BE
:1017D80080B584B000AF786039607B68002B01D198
:1017E8000123CCE0684B1B6803F007033A689A4270
:1017F8000CD9654B3A68D2B21A70634B1B6803F078
:1018080007033A689A4201D00123B8E07B681B6855
:1018180003F00203002B20D07B681B6803F004034D
:10182800002B05D0594B9B68584A43F4E05393600A
:101838007B681B6803F00803002B05D0534B9B689B
:10184800524A43F460439360504B9B6823F0F00284
:101858007B689B684D4913438B607B681B6803F06A
:101868000103002B44D07B685B68012B07D1474BF1
:101878001B6803F40033002B19D101237FE07B6838
:101888005B68022B03D07B685B68032B07D13F4B57
:101898001B6803F00073002B09D101236FE03B4B59
:1018A8001B6803F00203002B01D1012367E0374BCB
:1018B8009B6823F003027B685B68344913438B60A1
:1018C800FFF73AFAF8600AE0FFF736FA0246FB68D3
:1018D800D31A41F28832934201D903234FE02B4BAC
:1018E8009B6803F00C027B685B689B009A42EBD113
:1018F800254B1B6803F007033A689A420CD2224B27
:101908003A68D2B21A70204B1B6803F007033A6892
:101918009A4201D0012332E07B681B6803F004037C
:10192800002B08D0194B9B6823F4E0527B68DB68D6
:10193800164913438B607B681B6803F00803002B70
:1019480009D0124B9B6823F460427B681B69DB005B
:101958000E4913438B6000F021F802460B4B9B683D
:101968001B0903F00F030A49CB5C22FA03F3094A67
:101978001360094B1B681846FFF79AF900231846AD
:101988001037BD4680BD00BF003C02400038024011
:10199800EC25000800000020040000202DE9B043D9
:1019A80084B000AF00237B600023FB6000233B6012
:1019B8000023BB60674B9B6803F00C03082B0DD01A
:1019C800082B00F2BD80002B02D0042B03D0B7E017
:1019D800614BBB60B7E0614BBB60B4E05D4B5B68DB
:1019E80003F03F037B605B4B5B6803F48003002BD1
:1019F8004DD0584B5B689B091A464FF0000340F2E4
:101A0800FF104FF0000102EA000803EA010940460E
:101A180049464FF000024FF000034B0143EAD06300
:101A2800420110461946B0EB080061EB09014FF07E
:101A380000024FF000038B0143EA90638201121AFF
:101A480063EB01034FF000004FF00001D90041EAB9
:101A58005271D00002460B4612EB080243EB090311
:101A68004FF000004FF00001590241EAD2515002F4
:101A780002460B46104619467B681A464FF000038B
:101A8800FEF79EFB02460B461346FB604AE0314BCD
:101A98005B689B091A464FF0000340F2FF104FF0B5
:101AA800000102EA000403EA0105204629464FF036
:101AB80000024FF000034B0143EAD0634201104695
:101AC8001946001B61EB05014FF000024FF00003BF
:101AD8008B0143EA90638201121A63EB01034FF012
:101AE80000004FF00001D90041EA5271D0000246CF
:101AF8000B46121945EB03034FF000004FF00001AD
:101B0800990241EA9251900202460B461046194644
:101B18007B681A464FF00003FEF752FB02460B465D
:101B28001346FB600B4B5B681B0C03F0030301338C
:101B38005B003B60FA683B68B2FBF3F3BB6002E012
:101B4800054BBB6000BFBB6818461037BD46BDE8F3
:101B5800B08300BF003802400024F40000127A006D
:101B680080B582B000AF78607B68002B01D101237B
:101B78007BE07B685B6A002B08D17B685B68B3F508
:101B8800827F09D07B680022DA6105E07B68002249
:101B98001A617B6800225A617B6800229A627B681E
:101BA80093F85130DBB2002B06D17B68002283F812
:101BB80050207868FEF708FF7B68022283F85120DE
:101BC8007B681B681A687B681B6822F040021A60F1
:101BD8007B685B6803F482727B689B6803F4044348
:101BE8001A437B68DB6803F400631A437B681B694C
:101BF80003F002031A437B685B6903F001031A438D
:101C08007B689B6903F400731A437B68DB6903F004
:101C180038031A437B681B6A03F0800342EA030116
:101C28007B689B6A03F400527B681B680A431A604E
:101C38007B689B691B0C03F004017B685B6A03F0FB
:101C480010027B681B680A435A607B681B68DA6964
:101C58007B681B6822F40062DA617B6800225A659F
:101C68007B68012283F85120002318460837BD46B7
:101C780080BD80B582B000AF78607B68002B01D151
:101C8800012341E07B6893F83D30DBB2002B06D19D
:101C98007B68002283F83C207868FEF797FF7B6812
:101CA800022283F83D207B681A687B680433194652
:101CB800104600F095FA7B68012283F846207B687D
:101CC800012283F83E207B68012283F83F207B684D
:101CD800012283F840207B68012283F841207B6839
:101CE800012283F842207B68012283F843207B6825
:101CF800012283F844207B68012283F845207B6811
:101D0800012283F83D20002318460837BD4680BDD0
:101D180080B485B000AF78607B6893F83D30DBB263
:101D2800012B01D001234EE07B68022283F83D207D
:101D38007B681B68DA687B681B6842F00102DA601E
:101D48007B681B68234A934222D07B681B68B3F1E7
:101D5800804F1DD07B681B681F4A934218D07B6850
:101D68001B681E4A934213D07B681B681C4A934227
:101D78000ED07B681B681B4A934209D07B681B689E
:101D8800194A934204D07B681B68184A934211D1C0
:101D98007B681B689B6803F00703FB60FB68062BE6
:101DA80010D07B681B681A687B681B6842F00102C8
:101DB8001A6007E07B681B681A687B681B6842F03A
:101DC80001021A60002318461437BD465DF8047BEB
:101DD800704700BF000001400004004000080040B8
:101DE800000C004000040140004001400018004081
:101DF80080B582B000AF78607B681B681B6903F010
:101E08000203022B22D17B681B68DB6803F0020304
:101E1800022B1BD17B681B686FF002021A617B687A
:101E280001221A777B681B689B6903F00303002B68
:101E380003D0786800F0B5F905E0786800F0A7F9F4
:101E4800786800F0B8F97B6800221A777B681B680D
:101E58001B6903F00403042B22D17B681B68DB6831
:101E680003F00403042B1BD17B681B686FF004028A
:101E78001A617B6802221A777B681B689B6903F4E6
:101E88004073002B03D0786800F08BF905E0786880
:101E980000F07DF9786800F08EF97B6800221A77E7
:101EA8007B681B681B6903F00803082B22D17B6839
:101EB8001B68DB6803F00803082B1BD17B681B68D1
:101EC8006FF008021A617B6804221A777B681B6826
:101ED800DB6903F00303002B03D0786800F061F995
:101EE80005E0786800F053F9786800F064F97B68D9
:101EF80000221A777B681B681B6903F01003102BFC
:101F080022D17B681B68DB6803F01003102B1BD100
:101F18007B681B686FF010021A617B6808221A77C9
:101F28007B681B68DB6903F44073002B03D0786877
:101F380000F037F905E0786800F029F9786800F0D2
:101F48003AF97B6800221A777B681B681B6903F0E3
:101F58000103012B0ED17B681B68DB6803F00103CA
:101F6800012B07D17B681B686FF001021A61786842
:101F7800FEF7CAFC7B681B681B6903F08003802B93
:101F88000ED17B681B68DB6803F08003802B07D1C8
:101F98007B681B686FF080021A61786800F0E0FACD
:101FA8007B681B681B6903F04003402B0ED17B68DC
:101FB8001B68DB6803F04003402B07D17B681B6874
:101FC8006FF040021A61786800F0FFF87B681B68C0
:101FD8001B6903F02003202B0ED17B681B68DB688C
:101FE80003F02003202B07D17B681B686FF02002C9
:101FF8001A61786800F0AAFA00BF0837BD4680BDAC
:1020080080B584B000AF786039600023FB737B68CB
:1020180093F83C30012B01D10223B4E07B68012204
:1020280083F83C207B68022283F83D207B681B688C
:102038009B68BB60BB6823F07703BB60BB6823F475
:102048007F43BB607B681B68BA689A603B681B6803
:10205800B3F5005F3ED0B3F5005F00F28780B3F5BB
:10206800805F00F08680B3F5805F7FD8702B1AD030
:10207800702B7BD8602B50D0602B77D8502B3CD05E
:10208800502B73D8402B58D0402B6FD8302B64D0AE
:10209800302B6BD8202B60D0202B67D8002B5CD03E
:1020A800102B5AD062E07B6818683B6899683B68D7
:1020B8005A683B68DB6800F0ADF97B681B689B6871
:1020C800BB60BB6843F07703BB607B681B68BA687A
:1020D8009A604FE07B6818683B6899683B685A6863
:1020E8003B68DB6800F096F97B681B689A687B6838
:1020F8001B6842F480429A603CE07B6818683B6841
:1021080059683B68DB681A4600F00AF97B681B6867
:102118005021184600F063F92CE07B6818683B688A
:1021280059683B68DB681A4600F029F97B681B6828
:102138006021184600F053F91CE07B6818683B687A
:1021480059683B68DB681A4600F0EAF87B681B6848
:102158004021184600F043F90CE07B681A683B6898
:102168001B681946104600F03AF903E00123FB7397
:1021780000E000BF7B68012283F83D207B680022D5
:1021880083F83C20FB7B18461037BD4680BD80B4E1
:1021980083B000AF786000BF0C37BD465DF8047BA4
:1021A800704780B483B000AF786000BF0C37BD467D
:1021B8005DF8047B704780B483B000AF786000BFDF
:1021C8000C37BD465DF8047B704780B483B000AF20
:1021D800786000BF0C37BD465DF8047B704700008F
:1021E80080B485B000AF786039607B681B68FB609D
:1021F8007B68404A934213D07B68B3F1804F0FD07D
:102208007B683D4A93420BD07B683C4A934207D097
:102218007B683B4A934203D07B683A4A934208D191
:10222800FB6823F07003FB603B685B68FA68134344
:10223800FB607B682F4A93422BD07B68B3F1804FB9
:1022480027D07B682C4A934223D07B682B4A934241
:102258001FD07B682A4A93421BD07B68294A934245
:1022680017D07B68284A934213D07B68274A934249
:102278000FD07B68264A93420BD07B68254A93424D
:1022880007D07B68244A934203D07B68234A934251
:1022980008D1FB6823F44073FB603B68DB68FA688D
:1022A8001343FB60FB6823F080023B685B691343C0
:1022B800FB607B68FA681A603B689A687B68DA6238
:1022C8003B681A687B689A627B680A4A934203D023
:1022D8007B680C4A934203D13B681A697B681A638E
:1022E8007B6801225A6100BF1437BD465DF8047B44
:1022F800704700BF00000140000400400008004093
:10230800000C00400004014000400140004401402E
:102318000048014000180040001C00400020004018
:1023280080B487B000AFF860B9607A60FB681B6A58
:102338007B61FB681B6A23F00102FB681A62FB6879
:102348009B693B613B6923F0F0033B617B681B01A0
:102358003A6913433B617B6923F00A037B617A691D
:10236800BB6813437B61FB683A699A61FB687A69C9
:102378001A6200BF1C37BD465DF8047B704780B405
:1023880087B000AFF860B9607A60FB681B6A23F019
:102398001002FB681A62FB689B697B61FB681B6A19
:1023A8003B617B6923F470437B617B681B037A691B
:1023B80013437B613B6923F0A0033B61BB681B01AE
:1023C8003A6913433B61FB687A699A61FB683A6929
:1023D8001A6200BF1C37BD465DF8047B704780B4A5
:1023E80085B000AF786039607B689B68FB60FB68EC
:1023F80023F07003FB603A68FB68134343F007035C
:10240800FB607B68FA689A6000BF1437BD465DF8C8
:10241800047B704780B487B000AFF860B9607A6019
:102428003B60FB689B687B617B6923F47F437B612E
:102438003B681A027B681A43BB6813437A691343E3
:102448007B61FB687A699A6000BF1C37BD465DF8FE
:10245800047B704780B485B000AF786039607B68D2
:1024680093F83C30012B01D102235AE07B6801220A
:1024780083F83C207B68022283F83D207B681B6838
:102488005B68FB607B681B689B68BB60FB6823F02C
:102498007003FB603B681B68FA681343FB607B684A
:1024A8001B68FA685A607B681B68214A934222D0ED
:1024B8007B681B68B3F1804F1DD07B681B681D4A81
:1024C800934218D07B681B681B4A934213D07B68E1
:1024D8001B681A4A93420ED07B681B68184A9342BD
:1024E80009D07B681B68174A934204D07B681B6835
:1024F800154A93420CD1BB6823F08003BB603B684C
:102508005B68BA681343BB607B681B68BA689A60EB
:102518007B68012283F83D207B68002283F83C20F9
:10252800002318461437BD465DF8047B704700BF8A
:10253800000001400004004000080040000C00407A
:1025480000040140004001400018004080B483B0FE
:1025580000AF786000BF0C37BD465DF8047B70475C
:1025680080B483B000AF786000BF0C37BD465DF81B
:10257800047B704770B50D4D0D4C641BA4100026EC
:10258800A64209D10B4D0C4C00F020F8641BA41096
:102598000026A64205D170BD55F8043B9847013680
:1025A800EEE755F8043B98470136F2E704260008A1
:1025B80004260008042600080826000802440346EA
:1025C800934200D1704703F8011BF9E7F8B500BF43
:1025D800F8BC08BC9E467047F8B500BFF8BC08BCFC
:0425E8009E46704754
:1025EC0000000000000000000102030406070809B7
:0825FC00FCDBFF7F0100000081
:04260400AD0100081C
:04260800890100083C
:0C260C000024F400100000000100000099
:0400000508000C21C2
:00000001FF
