:020000040800F2
:100000000000022059080008E1070008E70700087F
:10001000ED070008F3070008F907000800000000DA
:10002000000000000000000000000000FF070008C2
:100030000D080008000000001B080008290800083F
:10004000A9080008A9080008A9080008A9080008CC
:10005000A9080008A9080008A9080008A9080008BC
:10006000A9080008A9080008A9080008A9080008AC
:10007000A9080008A9080008A9080008A90800089C
:10008000A9080008A9080008A9080008A90800088C
:10009000A9080008A9080008A9080008A90800087C
:1000A000A9080008A9080008A9080008A90800086C
:1000B000A9080008A9080008A9080008A90800085C
:1000C000A9080008A9080008A9080008A90800084C
:1000D000A9080008A9080008A9080008A90800083C
:1000E000A9080008A9080008A9080008A90800082C
:1000F000A9080008A9080008A9080008A90800081C
:10010000A9080008A9080008A9080008A90800080B
:10011000A9080008A9080008A9080008A9080008FB
:10012000A9080008A9080008A9080008A9080008EB
:10013000A9080008A9080008A9080008A9080008DB
:10014000A9080008A9080008A9080008A9080008CB
:10015000A9080008A9080008A9080008A9080008BB
:10016000A9080008A9080008A9080008A9080008AB
:10017000A9080008A9080008A90800080000000054
:08018000A9080008A908000805
:1001880010B5054C237833B9044B13B10448AFF3C9
:1001980000800123237010BD0C0000200000000027
:1001A800E817000808B5034B1BB103490348AFF330
:1001B800008008BD0000000010000020E8170008BB
:1001C80053B94AB9002908BF00281CBF4FF0FF31B6
:1001D8004FF0FF3000F06EB9ADF1080C6DE904CEB8
:1001E80000F006F8DDF804E0DDE9022304B070470A
:1001F8002DE9F047089D04468C46002B40F083808B
:100208008A42174647D9B2FA82F242B1C2F12000B7
:1002180024FA00F09140974040EA010C94404FEADC
:100228001748230CBCFBF8F61FFA87FE08FB16C11B
:1002380043EA014306FB0EF1994209D9FB1806F17E
:10024800FF3080F01981994240F21681023E3B440A
:100258005B1AA4B2B3FBF8F008FB103344EA03447A
:1002680000FB0EFEA64509D93C1900F1FF3380F0CA
:100278000581A64540F2028102383C4440EA064026
:10028800A4EB0E0400261DB1D4400023C5E90043A9
:100298003146BDE8F08702B9FFDEB2FA82F2002AE1
:1002A80050D1CB1B4FEA174E1FFA87F80126B3FB34
:1002B800FEFC210C0EFB1C3341EA034108FB0CF346
:1002C8008B4207D979180CF1FF3002D28B4200F229
:1002D800E9808446C91AA3B2B1FBFEF00EFB1011E7
:1002E80043EA014408FB00F8A04507D93C1900F18E
:1002F800FF3302D2A04500F2D9801846A4EB0804C7
:1003080040EA0C40BFE78B4209D9002D00F0B180CC
:100318000026C5E9000130463146BDE8F087B3FA4A
:1003280083F6002E4AD18B4202D3824200F2B88073
:10033800841A61EB030101208C46002DA8D0C5E981
:10034800004CA5E7C2F1200320FA03F6974001FA12
:1003580002F04FEA174ED9403043030CB1FBFEF6CA
:100368001FFA87F80EFB161143EA014306FB08F152
:10037800994204FA02F409D9FB1806F1FF3C80F00F
:100388008D80994240F28A80023E3B445B1A81B2DA
:10039800B3FBFEF00EFB103341EA034100FB08F308
:1003A8008B4207D9791800F1FF3C73D28B4271D97F
:1003B80002383944CB1A40EA064678E7C6F1200CE1
:1003C80003FA06F422FA0CF31C4320FA0CF701FA9C
:1003D80006F34FEA144E21FA0CF11F433B0CB1FB14
:1003E800FEF91FFA84F80EFB191143EA014109FBD3
:1003F80008FA8A4502FA06F200FA06F308D96118E3
:1004080009F1FF3048D28A4546D9A9F102092144A9
:10041800A1EB0A01BFB2B1FBFEF00EFB101147EAD7
:10042800014700FB08F8B84507D9E71900F1FF3183
:100438002ED2B8452CD90238274440EA0940A7EB08
:100448000807A0FB02894F45C64649461AD317D06C
:100458005DB1B3EB0E0267EB010707FA0CFCF24043
:100468004CEA0202F740C5E9002700263146BDE8FC
:10047800F0872E4628460BE70646E9E61846FDE6CD
:100488004345E5D2B8EB020E69EB04010138DFE71A
:100498000846D2E760468DE78146B9E7664675E7C4
:1004A80030464AE7ACF1020C394413E702383C44C1
:1004B80024E700BF704700BF80B58AB000AF07F1DE
:1004C800140300221A605A609A60DA601A610023E5
:1004D8003B61324B1B6B314A43F0100313632F4BC4
:1004E8001B6B03F010033B613B690023FB602B4B44
:1004F8001B6B2A4A43F080031363284B1B6B03F0E2
:100508008003FB60FB680023BB60244B1B6B234A02
:1005180043F001031363214B1B6B03F00103BB6022
:10052800BB6800237B601D4B1B6B1C4A43F0040314
:1005380013631A4B1B6B03F004037B607B68002278
:100548007021174800F0C6FC70237B610123BB6152
:100558000023FB6100233B6207F11403194610488E
:1005680000F01CFBC0237B610023BB610023FB61FF
:1005780007F1140319460B4800F010FB30237B6188
:100588000023BB610023FB6107F1140319460648E9
:1005980000F004FB00BF2837BD4680BD003802408C
:1005A80000100240000002400008024080B582B0FE
:1005B80000AF0346FB710B46BB7113467B71FB7999
:1005C8001A461021094800F085FC7B791A4620213B
:1005D800064800F07FFCBB791A464021034800F02A
:1005E80079FC00BF0837BD4680BD00BF001002403F
:1005F80080B582B000AF00F055F900F055F8FFF76C
:100608005BFF00237B6000221021264800F062FC7B
:1006180000222021234800F05DFC002240212148CF
:1006280000F058FC0023FB707B6841F2873293424C
:1006380002DC0023FB7008E07B68B3F5FA5F02DA9E
:100648000223FB7001E00123FB70FB78022B0CD026
:10065800022B16DC002B02D0012B0CD011E000225B
:1006680000210120FFF7A2FF0CE000220121002059
:10067800FFF79CFF06E0012200210020FFF796FF0C
:1006880000E000BF7B680A337B607B6842F2273258
:10069800934203DD00237B600023FB700A2000F0F7
:1006A80073F9C1E70010024080B594B000AF07F1BC
:1006B800200330220021184601F08AF807F10C03C4
:1006C80000221A605A609A60DA601A610023BB60DF
:1006D800284B1B6C274A43F080531364254B1B6C33
:1006E80003F08053BB60BB6800237B60224B1B6810
:1006F800214A43F4804313601F4B1B6803F4804373
:100708007B607B6802233B620123FB6210233B630F
:100718000223BB630023FB6308233B64A8237B6499
:100728000223BB640423FB6407F12003184600F08E
:10073800EBFB0346002B01D000F020F80F23FB60F1
:1007480002233B6100237B614FF4A053BB614FF44C
:100758008053FB6107F10C030521184600F04CFE9D
:100768000346002B01D000F009F800BF5037BD4602
:1007780080BD00BF003802400070004080B400AF68
:1007880072B600BFFEE7000080B483B000AF00235C
:100798007B60104B5B6C0F4A43F4804353640D4BF2
:1007A8005B6C03F480437B607B6800233B60094BF0
:1007B8001B6C084A43F080531364064B1B6C03F010
:1007C80080533B603B6800BF0C37BD465DF8047B37
:1007D800704700BF0038024080B400AFFEE780B425
:1007E80000AFFEE780B400AFFEE780B400AFFEE7DD
:1007F80080B400AFFEE780B400AF00BFBD465DF82F
:10080800047B704780B400AF00BFBD465DF8047B31
:10081800704780B400AF00BFBD465DF8047B7047E9
:1008280080B500AF00F090F800BF80BD80B400AF85
:10083800064BD3F88830054A43F47003C2F8883071
:1008480000BFBD465DF8047B704700BF00ED00E0C7
:10085800DFF834D00D480E490E4A002302E0D45880
:10086800C4500433C4188C42F9D30B4A0B4C0023F0
:1008780001E013600432A242FBD3FFF7D7FF00F078
:1008880083FFFFF7B5FE704700000220000000203C
:100898000C000020201800080C0000202C0000206C
:1008A800FEE7000080B500AF0E4B1B680D4A43F40D
:1008B800007313600B4B1B680A4A43F48063136090
:1008C800084B1B68074A43F480731360032000F049
:1008D80031F90F2000F008F8FFF756FF00231846FB
:1008E80080BD00BF003C024080B582B000AF786098
:1008F800124B1A68124B1B7819464FF47A73B3FBE4
:10090800F1F3B2FBF3F3184600F03BF90346002B72
:1009180001D001230EE07B680F2B0AD800227968EA
:100928004FF0FF3000F011F9064A7B68136000238E
:1009380000E0012318460837BD4680BD00000020AE
:10094800080000200400002080B400AF064B1B788C
:100958001A46064B1B681344044A136000BFBD4681
:100968005DF8047B704700BF0800002028000020C5
:1009780080B400AF034B1B681846BD465DF8047B86
:10098800704700BF2800002080B584B000AF7860B1
:10099800FFF7EEFFB8607B68FB60FB68B3F1FF3FD1
:1009A80005D00A4B1B781A46FB681344FB6000BF4E
:1009B800FFF7DEFF0246BB68D31AFA689A42F7D8F7
:1009C80000BF00BF1037BD4680BD00BF0800002033
:1009D80080B485B000AF78607B6803F00703FB60E4
:1009E8000C4BDB68BB60BA684FF6FF031340BB6073
:1009F800FB681A02BB68134343F0BF6343F4003338
:100A0800BB60044ABB68D36000BF1437BD465DF8BD
:100A1800047B704700ED00E080B400AF044BDB6856
:100A28001B0A03F007031846BD465DF8047B7047B0
:100A380000ED00E080B483B000AF03463960FB717D
:100A480097F90730002B0ADB3B68DAB20C4997F9B3
:100A580007301201D2B20B4483F800230AE03B6846
:100A6800DAB20849FB7903F00F03043B1201D2B252
:100A78000B441A7600BF0C37BD465DF8047B7047FF
:100A880000E100E000ED00E080B489B000AFF8605C
:100A9800B9607A60FB6803F00703FB61FB69C3F187
:100AA8000703042B28BF0423BB61FB690433062B0F
:100AB80002D9FB69033B00E000237B614FF0FF3262
:100AC800BB6902FA03F3DA43BB681A407B699A40B0
:100AD8004FF0FF317B6901FA03F3D9437B680B4080
:100AE800134318462437BD465DF8047B7047000061
:100AF80080B582B000AF78607B68013BB3F1807F3E
:100B080001D301230FE00A4A7B68013B53600F21A0
:100B18004FF0FF30FFF78EFF054B00229A60044B21
:100B280007221A60002318460837BD4680BD00BF5B
:100B380010E000E080B582B000AF78607868FFF719
:100B480047FF00BF0837BD4680BD80B586B000AFFF
:100B58000346B9607A60FB7300237B61FFF75CFF93
:100B680078617A68B9687869FFF78EFF024697F965
:100B78000F3011461846FFF75DFF00BF1837BD4616
:100B880080BD80B582B000AF78607868FFF7B0FFAD
:100B9800034618460837BD4680BD000080B489B0BA
:100BA80000AF7860396000237B6100233B6100233C
:100BB800BB610023FB616BE10122FB6902FA03F3CD
:100BC8007B613B681B687A6913403B613A697B69C2
:100BD8009A4240F05A813B685B6803F00303012B9B
:100BE80005D03B685B6803F00303022B30D17B68B8
:100BF8009B68BB61FB695B00032202FA03F3DB43DA
:100C0800BA691340BB613B68DA68FB695B0002FAAA
:100C180003F3BA691343BB617B68BA699A607B685E
:100C28005B68BB610122FB6902FA03F3DB43BA6923
:100C38001340BB613B685B681B0903F00102FB6959
:100C480002FA03F3BA691343BB617B68BA695A6055
:100C58003B685B6803F00303032B17D07B68DB68F2
:100C6800BB61FB695B00032202FA03F3DB43BA6949
:100C78001340BB613B689A68FB695B0002FA03F3A7
:100C8800BA691343BB617B68BA69DA603B685B6821
:100C980003F00303022B23D1FB69DA087B680832CF
:100CA80053F82230BB61FB6903F007039B000F2256
:100CB80002FA03F3DB43BA691340BB613B681A6964
:100CC800FB6903F007039B0002FA03F3BA691343B5
:100CD800BB61FB69DA087B680832B96943F82210FE
:100CE8007B681B68BB61FB695B00032202FA03F3A4
:100CF800DB43BA691340BB613B685B6803F00302DE
:100D0800FB695B0002FA03F3BA691343BB617B68B2
:100D1800BA691A603B685B6803F44033002B00F043
:100D2800B4800023FB60604B5B6C5F4A43F48043F4
:100D380053645D4B5B6C03F48043FB60FB685B4A68
:100D4800FB699B08023352F82330BB61FB6903F04F
:100D580003039B000F2202FA03F3DB43BA69134033
:100D6800BB617B68524A93422BD07B68514A9342BD
:100D780025D07B68504A93421FD07B684F4A9342E4
:100D880019D07B684E4A934213D07B684D4A9342F0
:100D98000DD07B684C4A934207D07B684B4A9342FC
:100DA80001D107230EE008230CE006230AE00523FF
:100DB80008E0042306E0032304E0022302E0012301
:100DC80000E00023FA6902F0030292009340BA6936
:100DD8001343BB613549FB699B080233BA6941F883
:100DE80023203B4B1B68BB613B69DB43BA6913405B
:100DF800BB613B685B6803F48033002B03D0BA699E
:100E08003B691343BB61324ABB691360304B5B6873
:100E1800BB613B69DB43BA691340BB613B685B68F4
:100E280003F40033002B03D0BA693B691343BB6159
:100E3800274ABB695360264B9B68BB613B69DB4310
:100E4800BA691340BB613B685B6803F48013002BED
:100E580003D0BA693B691343BB611D4ABB69936000
:100E68001B4BDB68BB613B69DB43BA691340BB6161
:100E78003B685B6803F40013002B03D0BA693B6935
:100E88001343BB61124ABB69D360FB690133FB6141
:100E9800FB690F2B7FF690AE00BF00BF2437BD461D
:100EA8005DF8047B704700BF0038024000380140FD
:100EB800000002400004024000080240000C02400A
:100EC800001002400014024000180240001C0240BA
:100ED800003C014080B483B000AF78600B467B8053
:100EE80013467B707B78002B03D07A887B689A61E5
:100EF80003E07B881A047B689A6100BF0C37BD4603
:100F08005DF8047B7047000080B586B000AF78605C
:100F18007B68002B01D1012364E27B681B6803F026
:100F28000103002B75D0A34B9B6803F00C03042B23
:100F38000CD0A04B9B6803F00C03082B12D19D4BDF
:100F48005B6803F48003B3F5800F0BD1994B1B68E2
:100F580003F40033002B5BD07B685B68002B57D110
:100F680001233FE27B685B68B3F5803F06D1914B74
:100F78001B68904A43F4803313601DE07B685B680C
:100F8800B3F5A02F0CD18B4B1B688A4A43F48023FE
:100F98001360884B1B68874A43F4803313600BE067
:100FA800844B1B68834A23F480331360814B1B688E
:100FB800804A23F4802313607B685B68002B13D07E
:100FC800FFF7D6FC386108E0FFF7D2FC02463B6920
:100FD800D31A642B01D9032304E2764B1B6803F46C
:100FE8000033002BF0D014E0FFF7C2FC386108E0B2
:100FF800FFF7BEFC02463B69D31A642B01D90323D1
:10100800F0E16C4B1B6803F40033002BF0D100E0D7
:1010180000BF7B681B6803F00203002B63D0654B9D
:101028009B6803F00C03002B0BD0624B9B6803F00A
:101038000C03082B1CD15F4B5B6803F48003002B67
:1010480016D15C4B1B6803F00203002B05D07B68AC
:10105800DB68012B01D00123C4E1564B1B6823F048
:10106800F8027B681B69DB00524913430B603AE0C6
:101078007B68DB68002B20D04F4B01221A60FFF7FA
:1010880077FC386108E0FFF773FC02463B69D31A26
:10109800022B01D90323A5E1464B1B6803F0020389
:1010A800002BF0D0434B1B6823F0F8027B681B69C8
:1010B800DB00404913430B6015E03F4B00221A60E8
:1010C800FFF756FC386108E0FFF752FC02463B691F
:1010D800D31A022B01D9032384E1364B1B6803F092
:1010E8000203002BF0D17B681B6803F00803002B78
:1010F80030D07B685B69002B16D0304B01221A6018
:10110800FFF736FC386108E0FFF732FC02463B691E
:10111800D31A022B01D9032364E1264B5B6F03F03A
:101128000203002BF0D015E0244B00221A60FFF7D1
:101138001FFC386108E0FFF71BFC02463B69D31A25
:10114800022B01D903234DE11A4B5B6F03F0020315
:10115800002BF0D17B681B6803F00403002B00F020
:10116800A0800023FB75134B1B6C03F08053002BEE
:101178000FD10023BB600F4B1B6C0E4A43F080530A
:1011880013640C4B1B6C03F08053BB60BB680123DA
:10119800FB750B4B1B6803F48073002B21D1084BA4
:1011A8001B68074A43F480731360FFF7E1FB38615B
:1011B80011E000BF0038024000004742800E47425D
:1011C80000700040FFF7D4FB02463B69D31A022B9C
:1011D80001D9032306E1854B1B6803F48073002BB8
:1011E800F0D07B689B68012B06D1814B1B6F804A2E
:1011F80043F0010313671CE07B689B68052B0CD147
:101208007B4B1B6F7A4A43F004031367784B1B6FC1
:10121800774A43F0010313670BE0754B1B6F744A61
:1012280023F001031367724B1B6F714A23F0040309
:1012380013677B689B68002B15D0FFF799FB386113
:101248000AE0FFF795FB02463B69D31A41F2883260
:10125800934201D90323C5E0654B1B6F03F00203DA
:10126800002BEED014E0FFF783FB38610AE0FFF7AC
:101278007FFB02463B69D31A41F28832934201D977
:101288000323AFE05A4B1B6F03F00203002BEED190
:10129800FB7D012B05D1564B1B6C554A23F080531F
:1012A80013647B689B69002B00F09B80504B9B6804
:1012B80003F00C03082B5CD07B689B69022B41D19F
:1012C8004C4B00221A60FFF753FB386108E0FFF728
:1012D8004FFB02463B69D31A022B01D9032381E055
:1012E800434B1B6803F00073002BF0D17B68DA696D
:1012F8007B681B6A1A437B685B6A9B011A437B689D
:101308009B6A5B08013B1B041A437B68DB6A1B066C
:10131800374913434B60374B01221A60FFF728FB0C
:10132800386108E0FFF724FB02463B69D31A022B19
:1013380001D9032356E02E4B1B6803F00073002BE2
:10134800F0D04EE02B4B00221A60FFF711FB3861FA
:1013580008E0FFF70DFB02463B69D31A022B01D9BF
:1013680003233FE0224B1B6803F00073002BF0D1EE
:1013780037E07B689B69012B01D1012332E01C4BCC
:101388005B68FB607B689B69012B28D0FB6803F4D2
:1013980080027B68DB699A4221D1FB6803F03F0237
:1013A8007B681B6A9A421AD1FA6847F6C0731340E1
:1013B8007A68526A9201934211D1FB6803F4403271
:1013C8007B689B6A5B08013B1B049A4207D1FB6858
:1013D80003F070627B68DB6A1B069A4201D0012326
:1013E80000E0002318461837BD4680BD0070004055
:1013F800003802406000474280B584B000AF786092
:1014080039607B68002B01D10123CCE0684B1B6855
:1014180003F007033A689A420CD9654B3A68D2B28E
:101428001A70634B1B6803F007033A689A4201D0AD
:101438000123B8E07B681B6803F00203002B20D06F
:101448007B681B6803F00403002B05D0594B9B688D
:10145800584A43F4E05393607B681B6803F0080321
:10146800002B05D0534B9B68524A43F4604393606A
:10147800504B9B6823F0F0027B689B684D491343EF
:101488008B607B681B6803F00103002B44D07B68EA
:101498005B68012B07D1474B1B6803F40033002B13
:1014A80019D101237FE07B685B68022B03D07B683E
:1014B8005B68032B07D13F4B1B6803F00073002BBD
:1014C80009D101236FE03B4B1B6803F00203002B9B
:1014D80001D1012367E0374B9B6823F003027B6847
:1014E8005B68344913438B60FFF742FAF8600AE0FF
:1014F800FFF73EFA0246FB68D31A41F2883293425C
:1015080001D903234FE02B4B9B6803F00C027B6847
:101518005B689B009A42EBD1254B1B6803F00703DD
:101528003A689A420CD2224B3A68D2B21A70204BCF
:101538001B6803F007033A689A4201D0012332E09E
:101548007B681B6803F00403002B08D0194B9B68C9
:1015580023F4E0527B68DB68164913438B607B6891
:101568001B6803F00803002B09D0124B9B6823F477
:1015780060427B681B69DB000E4913438B6000F0F7
:1015880021F802460B4B9B681B0903F00F030A491D
:10159800CB5C22FA03F3094A1360094B1B6818460F
:1015A800FFF7A2F9002318461037BD4680BD00BFDB
:1015B800003C0240003802400018000800000020EB
:1015C800040000202DE9B04384B000AF00237B6005
:1015D8000023FB6000233B600023BB60674B9B68D4
:1015E80003F00C03082B0DD0082B00F2BD80002B54
:1015F80002D0042B03D0B7E0614BBB60B7E0614B6E
:10160800BB60B4E05D4B5B6803F03F037B605B4B02
:101618005B6803F48003002B4DD0584B5B689B0933
:101628001A464FF0000340F2FF104FF0000102EAA3
:10163800000803EA0109404649464FF000024FF00E
:1016480000034B0143EAD063420110461946B0EB50
:10165800080061EB09014FF000024FF000038B0115
:1016680043EA90638201121A63EB01034FF0000012
:101678004FF00001D90041EA5271D00002460B46F2
:1016880012EB080243EB09034FF000004FF0000192
:10169800590241EAD251500202460B4610461946F9
:1016A8007B681A464FF00003FEF78AFD02460B4698
:1016B8001346FB604AE0314B5B689B091A464FF0C2
:1016C800000340F2FF104FF0000102EA000403EAB1
:1016D8000105204629464FF000024FF000034B0158
:1016E80043EAD063420110461946001B61EB05012D
:1016F8004FF000024FF000038B0143EA9063820130
:10170800121A63EB01034FF000004FF00001D900FB
:1017180041EA5271D00002460B46121945EB030309
:101728004FF000004FF00001990241EA92519002F7
:1017380002460B46104619467B681A464FF00003CE
:10174800FEF73EFD02460B461346FB600B4B5B68FB
:101758001B0C03F0030301335B003B60FA683B6832
:10176800B2FBF3F3BB6002E0054BBB6000BFBB6894
:1017780018461037BD46BDE8B08300BF00380240A8
:101788000024F40000127A0070B50D4D0D4C641B56
:10179800A4100026A64209D10B4D0C4C00F020F8ED
:1017A800641BA4100026A64205D170BD55F8043B61
:1017B80098470136EEE755F8043B98470136F2E7BB
:1017C8001818000818180008181800081C1800082D
:1017D80002440346934200D1704703F8011BF9E71E
:1017E800F8B500BFF8BC08BC9E467047F8B500BF06
:0817F800F8BC08BC9E467047D6
:1018000000000000000000000102030406070809B0
:08181000E8E9FF7F0100000080
:04181800AD01000816
:04181C008901000836
:0C1820000024F400100000000100000093
:04000005080008598E
:00000001FF
